:020000040000FA
:02000000442991
:0400080080314E29CC
:02000E00B20836
:10001000031D0B280800F93000000000000000005C
:1000200000000000000000000000000000000000D0
:10003000FF3E031D0C28000000000000000000002F
:1000400000000000000000000000000000000000B0
:10005000B20B0B280800FA30B2000720FA30B200C9
:100060000720FA30B2000720FA30B2000720B10BA7
:100070002B2808007A3021009900E8308C00FF30EE
:100080008E0023008C018E0120008C018E01210046
:10009000951295111511951415148B160B1124003A
:1000A0008C16210095138B170B17E0302000A7004A
:1000B0009330A8000430A900AA01AB01AC010130C3
:1000C000AD00AE01AF01B0018C140C141430B200BD
:1000D00007200C108C100130B1002B200C16A60844
:1000E00003190629A6012708280429042A04FF3930
:1000F00003198C28A703270F8428A803280F842816
:10010000A903290F8428AA030030270428042904FE
:100110002A04FF390319412900302A02031D9A28B5
:1001200000302902031D9A2827302802031D9A282F
:10013000103027020318BA2880302705B10000309C
:100140002805B20000302905B30000302A05B400AC
:10015000B50100303104320433043404FF3903198B
:10016000B50AB601B5080319B60A36188C14361C40
:100170008C10D72801302705B10000302805B200C7
:1001800000302905B30000302A05B400B501003065
:100190003104320433043404FF390319B50AB601BB
:1001A000B5080319B60A36188C14361C8C10AF0823
:1001B000031DDD28B0080319FB2801302705B10015
:1001C00000302805B20000302905B30000302A05B0
:1001D000B400B50100303104320433043404FF3973
:1001E0000319B50AB601B5080319B60A36180C1476
:1001F000361C0C10FC280C10AB08031D0229AC089F
:1002000003190629AB080319AC03AB03AB08031DA4
:100210006F28AC08031D6F28AD08031D1229AE0816
:10022000031921298C1E6F28AD01AE011430AB00DB
:10023000AC01E030A7009330A8000430A900AA0167
:100240006F288C1A6F280130AD00AE011430AB005E
:10025000AC01E030A7009330A8000430A900AA0147
:10026000B101B201AF080319B10AB008031DB10111
:100270003108AF003208B0002F180C152F1C0C11DC
:100280006F280C110C1243292000A601A401A5011E
:10029000A001A101A201A30180313A280B1D090090
:1002A000053020009500A00A0319A10A0319A20A2B
:0C02B0000319A30A0130A6000B1109007D
:020000040001F9
:02000E00A4FF4D
:02001000FFDE11
:00000001FF
