:020000040000FA
:02000000742862
:0400080080317E289D
:02000E00AA083E
:10001000031D0B280800F93000000000000000005C
:1000200000000000000000000000000000000000D0
:10003000FF3E031D0C28000000000000000000002F
:1000400000000000000000000000000000000000B0
:10005000AA0B0B280800FA30AA000720FA30AA00E1
:100060000720FA30AA000720FA30AA000720A90BBF
:100070002B2808007A3021009900FF308C00F330E3
:100080008E0023008C018E0120008C018E01210046
:10009000951295111511951415148B160B1124003A
:1000A0000E16210095138B170B1720008E110230AE
:1000B000A9002B208E150530A700A8010E150E1AD9
:1000C00065281430AA0007205F280E110E1A662832
:1000D0001430AA000720A7080319A803A70B5E285D
:1000E000A80803198E115E282000A601A401A5010D
:1000F000A001A101A201A30180313A280B1D090032
:10010000053020009500A00A0319A10A0319A20ACC
:080110000319A30A0B110900F9
:020000040001F9
:02000E00A4FF4D
:02001000FFDE11
:00000001FF
