:020000040000FA
:020000003529A0
:0400080080313F29DB
:02000E00B50833
:10001000031D0B280800F93000000000000000005C
:1000200000000000000000000000000000000000D0
:10003000FF3E031D0C28000000000000000000002F
:1000400000000000000000000000000000000000B0
:10005000B50B0B280800FA30B5000720FA30B500C0
:100060000720FA30B5000720FA30B5000720B40B9E
:100070002B2808007A3021009900E8308C002300FA
:100080008C0120008C01283024008C002100951365
:10009000951295111511951415148B160B118B17BC
:1000A0000B17C0302000A7002730A8000930A90096
:1000B000AA01AB01AC010130AD00AE01AF01B0014E
:1000C000B101B201B3018C198B280130B100B2012A
:1000D0000130B4002B2022000C1620008C198B2834
:1000E000A60803196D28A60101303305B400B50137
:1000F000B4080319B50AB601B5080319B60A361CC7
:10010000832822008C1420003618882822008C10A6
:100110002000B30A6D282000A6080319F028A601C4
:10012000B30AB108031D9728B2080319B22827089B
:10013000280429042A04FF390319B228A703270F2A
:10014000A828A803280FA828A903290FA828AA03CC
:1001500000302704280429042A04FF39031DB2288B
:1001600022000C122000AF08031DB928B0080319A3
:10017000CE2801303305B400B501B4080319B50A1F
:10018000B601B5080319B60A361CC82822000C149B
:1001900020003618D02822000C10D02822000C1085
:1001A000013020003305B400B501B4080319B50AC5
:1001B000B601B5080319B60A361CE02822008C14D3
:1001C00020003618E52822008C102000AB08031D03
:1001D000EC28AC080319F028AB080319AC03AB03F7
:1001E000AB08031D2F29AC08031D2F29AD08031DE3
:1001F000FC28AE0803190B298C1E2F29AD01AE0176
:100200001430AB00AC01C030A7002730A800093083
:10021000A900AA012F298C1A2F290130AD00AE01A7
:100220001430AB00AC01C030A7002730A800093063
:10023000A900AA01B401B501AF080319B40AB008B6
:10024000031DB4013408AF003508B0002F1C2A2963
:1002500022000C1520002F182F2922000C1120003D
:100260008C198B2822000C128B282000A601A401D7
:10027000A501A001A101A201A30180313A280B1D13
:100280000900053020009500A00A0319A10A0319EE
:0E029000A20A0319A30A0130A6000B110900EF
:020000040001F9
:02000E00A4FF4D
:02001000FFDE11
:00000001FF
