:020000040000FA
:020000005E2977
:0400080080316829B2
:02000E00B70831
:10001000031D0B280800F93000000000000000005C
:1000200000000000000000000000000000000000D0
:10003000FF3E031D0C28000000000000000000002F
:1000400000000000000000000000000000000000B0
:10005000B70B0B280800FA30B7000720FA30B700BA
:100060000720FA30B7000720FA30B7000720B60B98
:100070002B2808007A3021009900E8308C002300FA
:100080008C0120008C01283024008C002100951365
:10009000951295111511951415148B160B118B17BC
:1000A0000B17C0302000A7002730A8000930A90096
:1000B000AA01AB01AC010130AD00AE01AF01B0014E
:1000C000B101B201B3018C19B4280130B100B20101
:1000D0000130B6002B2022000C1620008C198B2832
:1000E000A60803196D28A60101303305B600B70133
:1000F000B6080319B70AB801B7080319B80A381CBB
:10010000832822008C1420003818882822008C10A4
:100110002000B30A6D28B401B501C8303402350897
:100120000318942803199628B51FB428A6080319A4
:100130009628A60101303305B600B701B6080319A9
:10014000B70AB801B7080319B80A381CA928220051
:100150008C1420003818AE2822008C102000B30A1E
:10016000B40A0319B50A8D282000A6080319192915
:10017000A601B30AB108031DC028B2080319DB2881
:100180002708280429042A04FF390319DB28A703B8
:10019000270FD128A803280FD128A903290FD12878
:1001A000AA0300302704280429042A04FF39031D68
:1001B000DB2822000C122000AF08031DE228B00843
:1001C0000319F72801303305B400B501B408031949
:1001D000B50AB601B5080319B60A361CF128220083
:1001E0000C1420003618F92822000C10F9282200DF
:1001F0000C10013020003305B400B501B408031918
:10020000B50AB601B5080319B60A361C0929220039
:100210008C14200036180E2922008C102000AB0808
:10022000031D1529AC0803191929AB080319AC03E0
:10023000AB03AB08031D5829AC08031D5829AD08B2
:10024000031D2529AE08031934298C1E5829AD0138
:10025000AE011430AB00AC01C030A7002730A800BD
:100260000930A900AA0158298C1A58290130AD007B
:10027000AE011430AB00AC01C030A7002730A8009D
:100280000930A900AA01B401B501AF080319B40AE5
:10029000B008031DB4013408AF003508B0002F1CAE
:1002A000532922000C1520002F18582922000C1168
:1002B00020008C19B42822000C12B4282000A601BA
:1002C000A401A501A001A101A201A30180313A2846
:1002D0000B1D0900053020009500A00A0319A10A92
:1002E0000319A20A0319A30A0130A6000B11090081
:020000040001F9
:02000E00A4FF4D
:02001000FFDE11
:00000001FF
